{
  "contractName": "Forum",
  "abi": [
    {
      "constant": true,
      "inputs": [],
      "name": "totalTokens",
      "outputs": [
        {
          "name": "",
          "type": "uint256"
        }
      ],
      "payable": false,
      "stateMutability": "view",
      "type": "function"
    },
    {
      "constant": true,
      "inputs": [],
      "name": "tokenPrice",
      "outputs": [
        {
          "name": "",
          "type": "uint256"
        }
      ],
      "payable": false,
      "stateMutability": "view",
      "type": "function"
    },
    {
      "constant": true,
      "inputs": [
        {
          "name": "",
          "type": "bytes32"
        }
      ],
      "name": "questionInfo",
      "outputs": [
        {
          "name": "id",
          "type": "bytes32"
        },
        {
          "name": "title",
          "type": "string"
        },
        {
          "name": "question",
          "type": "string"
        },
        {
          "name": "questioner",
          "type": "address"
        },
        {
          "name": "createDate",
          "type": "uint256"
        },
        {
          "name": "questionReward",
          "type": "uint256"
        },
        {
          "name": "bestAnswerSelected",
          "type": "bool"
        }
      ],
      "payable": false,
      "stateMutability": "view",
      "type": "function"
    },
    {
      "constant": true,
      "inputs": [
        {
          "name": "",
          "type": "uint256"
        }
      ],
      "name": "questionIdList",
      "outputs": [
        {
          "name": "",
          "type": "bytes32"
        }
      ],
      "payable": false,
      "stateMutability": "view",
      "type": "function"
    },
    {
      "constant": true,
      "inputs": [],
      "name": "balanceTokens",
      "outputs": [
        {
          "name": "",
          "type": "uint256"
        }
      ],
      "payable": false,
      "stateMutability": "view",
      "type": "function"
    },
    {
      "inputs": [
        {
          "name": "tokens",
          "type": "uint256"
        },
        {
          "name": "pricePerToken",
          "type": "uint256"
        }
      ],
      "payable": false,
      "stateMutability": "nonpayable",
      "type": "constructor"
    },
    {
      "constant": false,
      "inputs": [
        {
          "name": "questionTitle",
          "type": "string"
        },
        {
          "name": "questionContent",
          "type": "string"
        },
        {
          "name": "reward",
          "type": "uint256"
        }
      ],
      "name": "askQuestion",
      "outputs": [
        {
          "name": "",
          "type": "bytes32"
        }
      ],
      "payable": false,
      "stateMutability": "nonpayable",
      "type": "function"
    },
    {
      "constant": true,
      "inputs": [],
      "name": "getQuestionListLength",
      "outputs": [
        {
          "name": "",
          "type": "uint256"
        }
      ],
      "payable": false,
      "stateMutability": "view",
      "type": "function"
    },
    {
      "constant": true,
      "inputs": [
        {
          "name": "questionIndex",
          "type": "uint256"
        }
      ],
      "name": "getQuestion",
      "outputs": [
        {
          "name": "",
          "type": "bytes32"
        },
        {
          "name": "",
          "type": "string"
        },
        {
          "name": "",
          "type": "string"
        },
        {
          "name": "",
          "type": "string"
        },
        {
          "name": "",
          "type": "address"
        },
        {
          "name": "",
          "type": "uint256"
        },
        {
          "name": "",
          "type": "uint256"
        },
        {
          "name": "",
          "type": "bool"
        }
      ],
      "payable": false,
      "stateMutability": "view",
      "type": "function"
    },
    {
      "constant": true,
      "inputs": [
        {
          "name": "questionIndex",
          "type": "uint256"
        }
      ],
      "name": "getQuestionAnswerListLength",
      "outputs": [
        {
          "name": "",
          "type": "uint256"
        }
      ],
      "payable": false,
      "stateMutability": "view",
      "type": "function"
    },
    {
      "constant": true,
      "inputs": [
        {
          "name": "questionId",
          "type": "bytes32"
        }
      ],
      "name": "getQuestionAnswerListLengthByQuestionId",
      "outputs": [
        {
          "name": "",
          "type": "uint256"
        }
      ],
      "payable": false,
      "stateMutability": "view",
      "type": "function"
    },
    {
      "constant": true,
      "inputs": [
        {
          "name": "questionId",
          "type": "bytes32"
        },
        {
          "name": "answerIndex",
          "type": "uint256"
        }
      ],
      "name": "getQuestionAnswerByQuestionId",
      "outputs": [
        {
          "name": "",
          "type": "string"
        },
        {
          "name": "",
          "type": "bytes32"
        },
        {
          "name": "",
          "type": "bytes32"
        },
        {
          "name": "",
          "type": "address"
        },
        {
          "name": "",
          "type": "bool"
        },
        {
          "name": "",
          "type": "uint256"
        }
      ],
      "payable": false,
      "stateMutability": "view",
      "type": "function"
    },
    {
      "constant": true,
      "inputs": [
        {
          "name": "questionIndex",
          "type": "uint256"
        },
        {
          "name": "answerIndex",
          "type": "uint256"
        }
      ],
      "name": "getQuestionAnswer",
      "outputs": [
        {
          "name": "",
          "type": "string"
        },
        {
          "name": "",
          "type": "bytes32"
        },
        {
          "name": "",
          "type": "bytes32"
        },
        {
          "name": "",
          "type": "address"
        },
        {
          "name": "",
          "type": "bool"
        },
        {
          "name": "",
          "type": "uint256"
        }
      ],
      "payable": false,
      "stateMutability": "view",
      "type": "function"
    },
    {
      "constant": false,
      "inputs": [
        {
          "name": "questionId",
          "type": "bytes32"
        },
        {
          "name": "answerContent",
          "type": "string"
        }
      ],
      "name": "answerQuestion",
      "outputs": [],
      "payable": false,
      "stateMutability": "nonpayable",
      "type": "function"
    },
    {
      "constant": false,
      "inputs": [
        {
          "name": "questionId",
          "type": "bytes32"
        },
        {
          "name": "answerId",
          "type": "bytes32"
        }
      ],
      "name": "setAsBestAnswer",
      "outputs": [],
      "payable": false,
      "stateMutability": "nonpayable",
      "type": "function"
    },
    {
      "constant": false,
      "inputs": [],
      "name": "buy",
      "outputs": [],
      "payable": true,
      "stateMutability": "payable",
      "type": "function"
    },
    {
      "constant": true,
      "inputs": [
        {
          "name": "user",
          "type": "address"
        }
      ],
      "name": "userDetails",
      "outputs": [
        {
          "name": "",
          "type": "uint256"
        }
      ],
      "payable": false,
      "stateMutability": "view",
      "type": "function"
    },
    {
      "constant": true,
      "inputs": [],
      "name": "tokensSold",
      "outputs": [
        {
          "name": "",
          "type": "uint256"
        }
      ],
      "payable": false,
      "stateMutability": "view",
      "type": "function"
    },
    {
      "constant": false,
      "inputs": [
        {
          "name": "account",
          "type": "address"
        }
      ],
      "name": "transferTo",
      "outputs": [],
      "payable": false,
      "stateMutability": "nonpayable",
      "type": "function"
    },
    {
      "constant": false,
      "inputs": [
        {
          "name": "userName",
          "type": "string"
        },
        {
          "name": "password",
          "type": "string"
        },
        {
          "name": "userAddress",
          "type": "address"
        }
      ],
      "name": "registerUser",
      "outputs": [],
      "payable": false,
      "stateMutability": "nonpayable",
      "type": "function"
    },
    {
      "constant": true,
      "inputs": [
        {
          "name": "userAddress",
          "type": "address"
        },
        {
          "name": "password",
          "type": "string"
        }
      ],
      "name": "loginUser",
      "outputs": [
        {
          "name": "",
          "type": "string"
        },
        {
          "name": "",
          "type": "uint256"
        },
        {
          "name": "",
          "type": "uint256"
        },
        {
          "name": "",
          "type": "uint256"
        }
      ],
      "payable": false,
      "stateMutability": "view",
      "type": "function"
    },
    {
      "constant": true,
      "inputs": [
        {
          "name": "userAddress",
          "type": "address"
        }
      ],
      "name": "getUserInfo",
      "outputs": [
        {
          "name": "",
          "type": "string"
        },
        {
          "name": "",
          "type": "uint256"
        },
        {
          "name": "",
          "type": "uint256"
        },
        {
          "name": "",
          "type": "uint256"
        }
      ],
      "payable": false,
      "stateMutability": "view",
      "type": "function"
    }
  ],
  "bytecode": "0x606060405234156200001057600080fd5b6040516040806200302f8339810160405280805190602001909190805190602001909190505081600381905550816004819055508060058190555060006040518059106200005b5750595b908082528060200260200182016040525060019080519060200190620000839291906200008c565b5050506200010c565b828054828255906000526020600020908101928215620000d1579160200282015b82811115620000d0578251829060001916905591602001919060010190620000ad565b5b509050620000e09190620000e4565b5090565b6200010991905b8082111562000105576000816000905550600101620000eb565b5090565b90565b612f13806200011c6000396000f30060606040526004361061011d576000357c0100000000000000000000000000000000000000000000000000000000900463ffffffff16806303bdb46b1461012257806307e971b51461022c5780631cfeffbe1461026757806348dec2a7146103735780634b8f89a5146103c0578063516fa9101461042a578063518ab2a8146104ef57806354c2cdbb14610518578063582926021461054f5780635e5a77e6146105835780636386c1c71461068b5780637e1c0c09146107525780637ff9b5961461077b57806388557b07146107a45780639f991c5214610863578063a03fa7e3146109ca578063a6f2ae3a14610a03578063af57ccbe14610a0d578063af741bd214610a4c578063db88176f14610a75578063e4494a0f14610c44575b600080fd5b341561012d57600080fd5b61019c600480803573ffffffffffffffffffffffffffffffffffffffff1690602001909190803590602001908201803590602001908080601f01602080910402602001604051908101604052809392919081815260200183838082843782019150505050505091905050610c6d565b6040518080602001858152602001848152602001838152602001828103825286818151815260200191508051906020019080838360005b838110156101ee5780820151818401526020810190506101d3565b50505050905090810190601f16801561021b5780820380516001836020036101000a031916815260200191505b509550505050505060405180910390f35b341561023757600080fd5b610251600480803560001916906020019091905050611090565b6040518082815260200191505060405180910390f35b341561027257600080fd5b6102956004808035600019169060200190919080359060200190919050506110bb565b6040518080602001876000191660001916815260200186600019166000191681526020018573ffffffffffffffffffffffffffffffffffffffff1673ffffffffffffffffffffffffffffffffffffffff16815260200184151515158152602001838152602001828103825288818151815260200191508051906020019080838360005b83811015610333578082015181840152602081019050610318565b50505050905090810190601f1680156103605780820380516001836020036101000a031916815260200191505b5097505050505050505060405180910390f35b341561037e57600080fd5b6103aa600480803573ffffffffffffffffffffffffffffffffffffffff169060200190919050506112ec565b6040518082815260200191505060405180910390f35b34156103cb57600080fd5b61042860048080356000191690602001909190803590602001908201803590602001908080601f01602080910402602001604051908101604052809392919081815260200183838082843782019150505050505091905050611337565b005b341561043557600080fd5b6104d1600480803590602001908201803590602001908080601f0160208091040260200160405190810160405280939291908181526020018383808284378201915050505050509190803590602001908201803590602001908080601f016020809104026020016040519081016040528093929190818152602001838380828437820191505050505050919080359060200190919050506116eb565b60405180826000191660001916815260200191505060405180910390f35b34156104fa57600080fd5b610502611bac565b6040518082815260200191505060405180910390f35b341561052357600080fd5b6105396004808035906020019091905050611bba565b6040518082815260200191505060405180910390f35b341561055a57600080fd5b61058160048080356000191690602001909190803560001916906020019091905050611c04565b005b341561058e57600080fd5b6105ad6004808035906020019091908035906020019091905050611d64565b6040518080602001876000191660001916815260200186600019166000191681526020018573ffffffffffffffffffffffffffffffffffffffff1673ffffffffffffffffffffffffffffffffffffffff16815260200184151515158152602001838152602001828103825288818151815260200191508051906020019080838360005b8381101561064b578082015181840152602081019050610630565b50505050905090810190601f1680156106785780820380516001836020036101000a031916815260200191505b5097505050505050505060405180910390f35b341561069657600080fd5b6106c2600480803573ffffffffffffffffffffffffffffffffffffffff16906020019091905050611fb4565b6040518080602001858152602001848152602001838152602001828103825286818151815260200191508051906020019080838360005b838110156107145780820151818401526020810190506106f9565b50505050905090810190601f1680156107415780820380516001836020036101000a031916815260200191505b509550505050505060405180910390f35b341561075d57600080fd5b6107656122b5565b6040518082815260200191505060405180910390f35b341561078657600080fd5b61078e6122bb565b6040518082815260200191505060405180910390f35b34156107af57600080fd5b610861600480803590602001908201803590602001908080601f0160208091040260200160405190810160405280939291908181526020018383808284378201915050505050509190803590602001908201803590602001908080601f0160208091040260200160405190810160405280939291908181526020018383808284378201915050505050509190803573ffffffffffffffffffffffffffffffffffffffff169060200190919050506122c1565b005b341561086e57600080fd5b6108886004808035600019169060200190919050506124a5565b60405180886000191660001916815260200180602001806020018773ffffffffffffffffffffffffffffffffffffffff1673ffffffffffffffffffffffffffffffffffffffff16815260200186815260200185815260200184151515158152602001838103835289818151815260200191508051906020019080838360005b83811015610922578082015181840152602081019050610907565b50505050905090810190601f16801561094f5780820380516001836020036101000a031916815260200191505b50838103825288818151815260200191508051906020019080838360005b8381101561098857808201518184015260208101905061096d565b50505050905090810190601f1680156109b55780820380516001836020036101000a031916815260200191505b50995050505050505050505060405180910390f35b34156109d557600080fd5b610a01600480803573ffffffffffffffffffffffffffffffffffffffff16906020019091905050612644565b005b610a0b61269e565b005b3415610a1857600080fd5b610a2e60048080359060200190919050506127a3565b60405180826000191660001916815260200191505060405180910390f35b3415610a5757600080fd5b610a5f6127c7565b6040518082815260200191505060405180910390f35b3415610a8057600080fd5b610a9660048080359060200190919050506127d4565b6040518089600019166000191681526020018060200180602001806020018873ffffffffffffffffffffffffffffffffffffffff1673ffffffffffffffffffffffffffffffffffffffff1681526020018781526020018681526020018515151515815260200184810384528b818151815260200191508051906020019080838360005b83811015610b34578082015181840152602081019050610b19565b50505050905090810190601f168015610b615780820380516001836020036101000a031916815260200191505b5084810383528a818151815260200191508051906020019080838360005b83811015610b9a578082015181840152602081019050610b7f565b50505050905090810190601f168015610bc75780820380516001836020036101000a031916815260200191505b50848103825289818151815260200191508051906020019080838360005b83811015610c00578082015181840152602081019050610be5565b50505050905090810190601f168015610c2d5780820380516001836020036101000a031916815260200191505b509b50505050505050505050505060405180910390f35b3415610c4f57600080fd5b610c57612ba3565b6040518082815260200191505060405180910390f35b610c75612ba9565b6000806000610c82612bbd565b856040518082805190602001908083835b602083101515610cb85780518252602082019150602081019050602083039250610c93565b6001836020036101000a0380198251168184511680821785525050505050509050019150506040518091039020600019166000808973ffffffffffffffffffffffffffffffffffffffff1673ffffffffffffffffffffffffffffffffffffffff1681526020019081526020016000206002016040518082805460018160011615610100020316600290048015610d855780601f10610d63576101008083540402835291820191610d85565b820191906000526020600020905b815481529060010190602001808311610d71575b5050915050604051809103902060001916141515610da257600080fd5b6000808873ffffffffffffffffffffffffffffffffffffffff1673ffffffffffffffffffffffffffffffffffffffff16815260200190815260200160002060e060405190810160405290816000820160009054906101000a900460ff16151515158152602001600182018054600181600116156101000203166002900480601f016020809104026020016040519081016040528092919081815260200182805460018160011615610100020316600290048015610ea05780601f10610e7557610100808354040283529160200191610ea0565b820191906000526020600020905b815481529060010190602001808311610e8357829003601f168201915b50505050508152602001600282018054600181600116156101000203166002900480601f016020809104026020016040519081016040528092919081815260200182805460018160011615610100020316600290048015610f425780601f10610f1757610100808354040283529160200191610f42565b820191906000526020600020905b815481529060010190602001808311610f2557829003601f168201915b505050505081526020016003820160009054906101000a900473ffffffffffffffffffffffffffffffffffffffff1673ffffffffffffffffffffffffffffffffffffffff1673ffffffffffffffffffffffffffffffffffffffff1681526020016004820154815260200160058201805480602002602001604051908101604052809291908181526020018280548015610ffe57602002820191906000526020600020905b81546000191681526020019060010190808311610fe6575b505050505081526020016006820180548060200260200160405190810160405280929190818152602001828054801561105a57602002820191906000526020600020905b81546000191681526020019060010190808311611042575b5050505050815250509050806020015181608001518260a00151518360c001515183935094509450945094505092959194509250565b6000600260008360001916600019168152602001908152602001600020600401805490509050919050565b6110c3612ba9565b60008060008060008060006110d6612ba9565b600080600260008e600019166000191681526020019081526020016000206004018c81548110151561110457fe5b9060005260206000209001549450600260008e600019166000191681526020019081526020016000206008016000866000191660001916815260200190815260200160002060020160009054906101000a900473ffffffffffffffffffffffffffffffffffffffff169350600260008e60001916600019168152602001908152602001600020600801600086600019166000191681526020019081526020016000206001018054600181600116156101000203166002900480601f01602080910402602001604051908101604052809291908181526020018280546001816001161561010002031660029004801561123d5780601f106112125761010080835404028352916020019161123d565b820191906000526020600020905b81548152906001019060200180831161122057829003601f168201915b50505050509250600260008e600019166000191681526020019081526020016000206008016000866000191660001916815260200190815260200160002060040160009054906101000a900460ff169150600260008e600019166000191681526020019081526020016000206008016000866000191660001916815260200190815260200160002060050154905082858e8685859a509a509a509a509a509a5050505050509295509295509295565b60008060008373ffffffffffffffffffffffffffffffffffffffff1673ffffffffffffffffffffffffffffffffffffffff168152602001908152602001600020600401549050919050565b6000611341612c2b565b600242604051808281526020019150506020604051808303816000865af1151561136a57600080fd5b505060405180519050915060c060405190810160405280836000191681526020018481526020013373ffffffffffffffffffffffffffffffffffffffff1681526020016000815260200160001515815260200142815250905060026000856000191660001916815260200190815260200160002060040180548060010182816113f39190612c83565b9160005260206000209001600084909190915090600019169055508060026000866000191660001916815260200190815260200160002060080160008460001916600019168152602001908152602001600020600082015181600001906000191690556020820151816001019080519060200190611472929190612caf565b5060408201518160020160006101000a81548173ffffffffffffffffffffffffffffffffffffffff021916908373ffffffffffffffffffffffffffffffffffffffff1602179055506060820151816003015560808201518160040160006101000a81548160ff02191690831515021790555060a08201518160050155905050336000803373ffffffffffffffffffffffffffffffffffffffff1673ffffffffffffffffffffffffffffffffffffffff16815260200190815260200160002060030160006101000a81548173ffffffffffffffffffffffffffffffffffffffff021916908373ffffffffffffffffffffffffffffffffffffffff1602179055506000803373ffffffffffffffffffffffffffffffffffffffff1673ffffffffffffffffffffffffffffffffffffffff16815260200190815260200160002060060180548060010182816115c49190612c83565b916000526020600020900160008490919091509060001916905550806000803373ffffffffffffffffffffffffffffffffffffffff1673ffffffffffffffffffffffffffffffffffffffff16815260200190815260200160002060080160008460001916600019168152602001908152602001600020600082015181600001906000191690556020820151816001019080519060200190611666929190612caf565b5060408201518160020160006101000a81548173ffffffffffffffffffffffffffffffffffffffff021916908373ffffffffffffffffffffffffffffffffffffffff1602179055506060820151816003015560808201518160040160006101000a81548160ff02191690831515021790555060a0820151816005015590505050505050565b6000806116f6612d2f565b600242604051808281526020019150506020604051808303816000865af1151561171f57600080fd5b50506040518051905091506000803373ffffffffffffffffffffffffffffffffffffffff1673ffffffffffffffffffffffffffffffffffffffff16815260200190815260200160002060040154841115151561177a57600080fd5b61010060405190810160405280836000191681526020018781526020018681526020013373ffffffffffffffffffffffffffffffffffffffff16815260200160006040518059106117c85750595b908082528060200260200182016040525081526020014281526020018581526020016000151581525090508060026000846000191660001916815260200190815260200160002060008201518160000190600019169055602082015181600101908051906020019061183b929190612caf565b506040820151816002019080519060200190611858929190612caf565b5060608201518160030160006101000a81548173ffffffffffffffffffffffffffffffffffffffff021916908373ffffffffffffffffffffffffffffffffffffffff16021790555060808201518160040190805190602001906118bc929190612da2565b5060a0820151816005015560c0820151816006015560e08201518160070160006101000a81548160ff021916908315150217905550905050600180548060010182816119089190612c83565b916000526020600020900160008490919091509060001916905550336000803373ffffffffffffffffffffffffffffffffffffffff1673ffffffffffffffffffffffffffffffffffffffff16815260200190815260200160002060030160006101000a81548173ffffffffffffffffffffffffffffffffffffffff021916908373ffffffffffffffffffffffffffffffffffffffff1602179055506000803373ffffffffffffffffffffffffffffffffffffffff1673ffffffffffffffffffffffffffffffffffffffff16815260200190815260200160002060050180548060010182816119f69190612c83565b916000526020600020900160008490919091509060001916905550806000803373ffffffffffffffffffffffffffffffffffffffff1673ffffffffffffffffffffffffffffffffffffffff16815260200190815260200160002060070160008460001916600019168152602001908152602001600020600082015181600001906000191690556020820151816001019080519060200190611a98929190612caf565b506040820151816002019080519060200190611ab5929190612caf565b5060608201518160030160006101000a81548173ffffffffffffffffffffffffffffffffffffffff021916908373ffffffffffffffffffffffffffffffffffffffff1602179055506080820151816004019080519060200190611b19929190612da2565b5060a0820151816005015560c0820151816006015560e08201518160070160006101000a81548160ff021916908315150217905550905050836000803373ffffffffffffffffffffffffffffffffffffffff1673ffffffffffffffffffffffffffffffffffffffff1681526020019081526020016000206004016000828254039250508190555081925050509392505050565b600060045460035403905090565b600080600183815481101515611bcc57fe5b906000526020600020900154905060026000826000191660001916815260200190815260200160002060040180549050915050919050565b60008060016002600086600019166000191681526020019081526020016000206008016000856000191660001916815260200190815260200160002060040160006101000a81548160ff021916908315150217905550600260008560001916600019168152602001908152602001600020600601549150600160026000866000191660001916815260200190815260200160002060070160006101000a81548160ff0219169083151502179055506002600085600019166000191681526020019081526020016000206008016000846000191660001916815260200190815260200160002060020160009054906101000a900473ffffffffffffffffffffffffffffffffffffffff169050816000808373ffffffffffffffffffffffffffffffffffffffff1673ffffffffffffffffffffffffffffffffffffffff1681526020019081526020016000206004016000828254019250508190555050505050565b611d6c612ba9565b600080600080600080600080611d80612ba9565b60008060018e815481101515611d9257fe5b90600052602060002090015495506002600087600019166000191681526020019081526020016000206004018d815481101515611dcb57fe5b90600052602060002090015494506002600087600019166000191681526020019081526020016000206008016000866000191660001916815260200190815260200160002060020160009054906101000a900473ffffffffffffffffffffffffffffffffffffffff169350600260008760001916600019168152602001908152602001600020600801600086600019166000191681526020019081526020016000206001018054600181600116156101000203166002900480601f016020809104026020016040519081016040528092919081815260200182805460018160011615610100020316600290048015611f045780601f10611ed957610100808354040283529160200191611f04565b820191906000526020600020905b815481529060010190602001808311611ee757829003601f168201915b505050505092506002600087600019166000191681526020019081526020016000206008016000866000191660001916815260200190815260200160002060040160009054906101000a900460ff169150600260008760001916600019168152602001908152602001600020600801600086600019166000191681526020019081526020016000206005015490508285878685859b509b509b509b509b509b505050505050509295509295509295565b611fbc612ba9565b6000806000611fc9612bbd565b6000808773ffffffffffffffffffffffffffffffffffffffff1673ffffffffffffffffffffffffffffffffffffffff16815260200190815260200160002060e060405190810160405290816000820160009054906101000a900460ff16151515158152602001600182018054600181600116156101000203166002900480601f0160208091040260200160405190810160405280929190818152602001828054600181600116156101000203166002900480156120c75780601f1061209c576101008083540402835291602001916120c7565b820191906000526020600020905b8154815290600101906020018083116120aa57829003601f168201915b50505050508152602001600282018054600181600116156101000203166002900480601f0160208091040260200160405190810160405280929190818152602001828054600181600116156101000203166002900480156121695780601f1061213e57610100808354040283529160200191612169565b820191906000526020600020905b81548152906001019060200180831161214c57829003601f168201915b505050505081526020016003820160009054906101000a900473ffffffffffffffffffffffffffffffffffffffff1673ffffffffffffffffffffffffffffffffffffffff1673ffffffffffffffffffffffffffffffffffffffff168152602001600482015481526020016005820180548060200260200160405190810160405280929190818152602001828054801561222557602002820191906000526020600020905b8154600019168152602001906001019080831161220d575b505050505081526020016006820180548060200260200160405190810160405280929190818152602001828054801561228157602002820191906000526020600020905b81546000191681526020019060010190808311612269575b5050505050815250509050806020015181608001518260a00151518360c00151518393509450945094509450509193509193565b60035481565b60055481565b6000808273ffffffffffffffffffffffffffffffffffffffff1673ffffffffffffffffffffffffffffffffffffffff16815260200190815260200160002060000160009054906101000a900460ff161561231a57600080fd5b60016000808373ffffffffffffffffffffffffffffffffffffffff1673ffffffffffffffffffffffffffffffffffffffff16815260200190815260200160002060000160006101000a81548160ff021916908315150217905550826000808373ffffffffffffffffffffffffffffffffffffffff1673ffffffffffffffffffffffffffffffffffffffff16815260200190815260200160002060010190805190602001906123c9929190612df5565b50816000808373ffffffffffffffffffffffffffffffffffffffff1673ffffffffffffffffffffffffffffffffffffffff168152602001908152602001600020600201908051906020019061241f929190612df5565b50806000808373ffffffffffffffffffffffffffffffffffffffff1673ffffffffffffffffffffffffffffffffffffffff16815260200190815260200160002060030160006101000a81548173ffffffffffffffffffffffffffffffffffffffff021916908373ffffffffffffffffffffffffffffffffffffffff160217905550505050565b6002602052806000526040600020600091509050806000015490806001018054600181600116156101000203166002900480601f0160208091040260200160405190810160405280929190818152602001828054600181600116156101000203166002900480156125575780601f1061252c57610100808354040283529160200191612557565b820191906000526020600020905b81548152906001019060200180831161253a57829003601f168201915b505050505090806002018054600181600116156101000203166002900480601f0160208091040260200160405190810160405280929190818152602001828054600181600116156101000203166002900480156125f55780601f106125ca576101008083540402835291602001916125f5565b820191906000526020600020905b8154815290600101906020018083116125d857829003601f168201915b5050505050908060030160009054906101000a900473ffffffffffffffffffffffffffffffffffffffff16908060050154908060060154908060070160009054906101000a900460ff16905087565b8073ffffffffffffffffffffffffffffffffffffffff166108fc3073ffffffffffffffffffffffffffffffffffffffff16319081150290604051600060405180830381858888f19350505050151561269b57600080fd5b50565b6000600554348115156126ad57fe5b04905060045481111515156126c157600080fd5b336000803373ffffffffffffffffffffffffffffffffffffffff1673ffffffffffffffffffffffffffffffffffffffff16815260200190815260200160002060030160006101000a81548173ffffffffffffffffffffffffffffffffffffffff021916908373ffffffffffffffffffffffffffffffffffffffff160217905550806000803373ffffffffffffffffffffffffffffffffffffffff1673ffffffffffffffffffffffffffffffffffffffff168152602001908152602001600020600401600082825401925050819055508060046000828254039250508190555050565b6001818154811015156127b257fe5b90600052602060002090016000915090505481565b6000600180549050905090565b60006127de612ba9565b6127e6612ba9565b6127ee612ba9565b60008060008060006127fe612d2f565b60018b81548110151561280d57fe5b90600052602060002090015491506002600083600019166000191681526020019081526020016000206101006040519081016040529081600082015460001916600019168152602001600182018054600181600116156101000203166002900480601f0160208091040260200160405190810160405280929190818152602001828054600181600116156101000203166002900480156128ee5780601f106128c3576101008083540402835291602001916128ee565b820191906000526020600020905b8154815290600101906020018083116128d157829003601f168201915b50505050508152602001600282018054600181600116156101000203166002900480601f0160208091040260200160405190810160405280929190818152602001828054600181600116156101000203166002900480156129905780601f1061296557610100808354040283529160200191612990565b820191906000526020600020905b81548152906001019060200180831161297357829003601f168201915b505050505081526020016003820160009054906101000a900473ffffffffffffffffffffffffffffffffffffffff1673ffffffffffffffffffffffffffffffffffffffff1673ffffffffffffffffffffffffffffffffffffffff16815260200160048201805480602002602001604051908101604052809291908181526020018280548015612a4257602002820191906000526020600020905b81546000191681526020019060010190808311612a2a575b5050505050815260200160058201548152602001600682015481526020016007820160009054906101000a900460ff1615151515815250509050806000015181602001518260400151600080856060015173ffffffffffffffffffffffffffffffffffffffff1673ffffffffffffffffffffffffffffffffffffffff16815260200190815260200160002060010184606001518560a001518660c001518760e00151869650859550848054600181600116156101000203166002900480601f016020809104026020016040519081016040528092919081815260200182805460018160011615610100020316600290048015612b7f5780601f10612b5457610100808354040283529160200191612b7f565b820191906000526020600020905b815481529060010190602001808311612b6257829003601f168201915b50505050509450995099509950995099509950995099505050919395975091939597565b60045481565b602060405190810160405280600081525090565b60e060405190810160405280600015158152602001612bda612e75565b8152602001612be7612e75565b8152602001600073ffffffffffffffffffffffffffffffffffffffff16815260200160008152602001612c18612e89565b8152602001612c25612e89565b81525090565b60c06040519081016040528060008019168152602001612c49612e75565b8152602001600073ffffffffffffffffffffffffffffffffffffffff16815260200160008152602001600015158152602001600081525090565b815481835581811511612caa57818360005260206000209182019101612ca99190612e9d565b5b505050565b828054600181600116156101000203166002900490600052602060002090601f016020900481019282601f10612cf057805160ff1916838001178555612d1e565b82800160010185558215612d1e579182015b82811115612d1d578251825591602001919060010190612d02565b5b509050612d2b9190612ec2565b5090565b6101006040519081016040528060008019168152602001612d4e612e75565b8152602001612d5b612e75565b8152602001600073ffffffffffffffffffffffffffffffffffffffff168152602001612d85612e89565b815260200160008152602001600081526020016000151581525090565b828054828255906000526020600020908101928215612de4579160200282015b82811115612de3578251829060001916905591602001919060010190612dc2565b5b509050612df19190612e9d565b5090565b828054600181600116156101000203166002900490600052602060002090601f016020900481019282601f10612e3657805160ff1916838001178555612e64565b82800160010185558215612e64579182015b82811115612e63578251825591602001919060010190612e48565b5b509050612e719190612ec2565b5090565b602060405190810160405280600081525090565b602060405190810160405280600081525090565b612ebf91905b80821115612ebb576000816000905550600101612ea3565b5090565b90565b612ee491905b80821115612ee0576000816000905550600101612ec8565b5090565b905600a165627a7a7230582010506dee9acdcb60caf8285eef1c833945c9f8d5f8ab964550ccdd0e4f2ea1630029",
  "source": "pragma solidity ^0.4.18;\n\ncontract Forum {\n\n    struct User {\n        bool registered;\n        string userName;\n        string password;\n        address userAddress;\n        uint ownedTokens;\n        bytes32[] questionsIdList;\n        bytes32[] answersIdList;\n        mapping (bytes32 => Question) myQuestions;\n        mapping (bytes32 => Answer) myAnswers;\n    }\n\n    mapping (address => User) userInfo;\n\n    struct Question {\n        bytes32 id;\n        string title;\n        string question;\n        address questioner;\n        bytes32[] answersIdList;\n        uint createDate;\n        uint questionReward;\n        bool bestAnswerSelected;\n        mapping (bytes32 => Answer) answerInfo;\n    }\n\n    struct Answer {\n        bytes32 id;\n        string answer;\n        address answerer;\n        uint rewards;\n        bool bestAnswer;\n        uint createDate;\n    }\n\n    bytes32[] public questionIdList;\n    mapping (bytes32 => Question) public questionInfo;\n    \n    uint public totalTokens; // Total no. of tokens available for this website\n    uint public balanceTokens; // Total no. of tokens still available for purchase\n    uint public tokenPrice; // Price per token\n\n    function Forum(uint tokens, uint pricePerToken) public {\n        totalTokens = tokens;\n        balanceTokens = tokens;\n        tokenPrice = pricePerToken;\n        questionIdList = new bytes32[](0);\n    }\n\n    function askQuestion(string questionTitle, string questionContent, uint reward) public returns (bytes32){\n        bytes32 questionId = sha256(now);\n        require(reward <= userInfo[msg.sender].ownedTokens);\n        Question memory question = Question(questionId, questionTitle, questionContent, msg.sender, new bytes32[](0), now, reward, false);\n        questionInfo[questionId] = question;\n        questionIdList.push(questionId);\n        userInfo[msg.sender].userAddress = msg.sender;\n        userInfo[msg.sender].questionsIdList.push(questionId);\n        userInfo[msg.sender].myQuestions[questionId] = question;\n        userInfo[msg.sender].ownedTokens -= reward;\n\n        return questionId;\n    }\n\n    function getQuestionListLength() view public returns (uint) {\n        return questionIdList.length;\n    }\n\n    //return value : questionId, questionTitle, questionContent, username, questioner, createDate, questionReward, bestAnswerSelected\n    function getQuestion (uint questionIndex) view public returns (bytes32, string, string, string, address, uint, uint, bool) {\n        bytes32 questionId = questionIdList[questionIndex];\n        Question memory question = questionInfo[questionId];\n        return (question.id, question.title, question.question, userInfo[question.questioner].userName, question.questioner, question.createDate, question.questionReward, question.bestAnswerSelected);\n    }\n\n    function getQuestionAnswerListLength(uint questionIndex) view public returns (uint) {\n        bytes32 questionId = questionIdList[questionIndex];\n        return questionInfo[questionId].answersIdList.length;\n    }\n\n    function getQuestionAnswerListLengthByQuestionId(bytes32 questionId) view public returns (uint) {\n        return questionInfo[questionId].answersIdList.length;\n    }\n\n    function getQuestionAnswerByQuestionId(bytes32 questionId, uint answerIndex)  view public returns (string, bytes32, bytes32, address, bool, uint) {\n        bytes32 answerId = questionInfo[questionId].answersIdList[answerIndex];\n        address answerer = questionInfo[questionId].answerInfo[answerId].answerer;\n        // string userName = userInfo[questionInfo[questionId].answerInfo[answerId].answerer].userName;\n        string memory answerContent = questionInfo[questionId].answerInfo[answerId].answer;\n        bool isBestAnswer = questionInfo[questionId].answerInfo[answerId].bestAnswer;\n        uint createDate = questionInfo[questionId].answerInfo[answerId].createDate;\n        return (answerContent, answerId, questionId, answerer, isBestAnswer, createDate);\n    }\n\n    function getQuestionAnswer(uint questionIndex, uint answerIndex) view public returns (string, bytes32, bytes32, address, bool, uint) {\n        bytes32 questionId = questionIdList[questionIndex];\n        bytes32 answerId = questionInfo[questionId].answersIdList[answerIndex];\n        address answerer = questionInfo[questionId].answerInfo[answerId].answerer;\n        string memory answerContent = questionInfo[questionId].answerInfo[answerId].answer;\n        bool isBestAnswer = questionInfo[questionId].answerInfo[answerId].bestAnswer;\n        uint createDate = questionInfo[questionId].answerInfo[answerId].createDate;\n        return (answerContent, answerId, questionId, answerer, isBestAnswer, createDate);\n    }\n\n    function answerQuestion(bytes32 questionId, string answerContent) public {\n        bytes32 answerId = sha256(now);\n        // Question question = questionInfo[questionId];\n        Answer memory answer = Answer(answerId, answerContent, msg.sender, 0, false, now);\n        questionInfo[questionId].answersIdList.push(answerId);\n        questionInfo[questionId].answerInfo[answerId] = answer;\n        userInfo[msg.sender].userAddress = msg.sender;\n        userInfo[msg.sender].answersIdList.push(answerId);\n        userInfo[msg.sender].myAnswers[answerId] = answer;\n    }\n\n    // function getQuestionAnswers(bytes32 questionId) view public returns (Answer[]) {\n    //     // Question question = questionInfo[questionId];\n    //     Answer[] memory answerList = new Answer[](questionInfo[questionId].answersIdList.length);\n        \n    //     for (uint i = 0; i < questionInfo[questionId].answersIdList.length; i++) {\n    //         Answer memory answerRes = questionInfo[questionId].answerInfo[questionInfo[questionId].answersIdList[i]];\n    //         answerList[i] = answerRes;\n    //     }\n        \n    //     return answerList;\n    // }\n\n    function setAsBestAnswer(bytes32 questionId, bytes32 answerId) public {\n        questionInfo[questionId].answerInfo[answerId].bestAnswer = true;\n        uint reward = questionInfo[questionId].questionReward;\n        questionInfo[questionId].bestAnswerSelected = true;\n        address answererAddress = questionInfo[questionId].answerInfo[answerId].answerer;\n        userInfo[answererAddress].ownedTokens += reward;\n    }\n\n    function buy() payable public {\n        uint tokensToBuy = msg.value / tokenPrice;\n        require(tokensToBuy <= balanceTokens);\n        userInfo[msg.sender].userAddress = msg.sender;\n        userInfo[msg.sender].ownedTokens += tokensToBuy;\n        balanceTokens -= tokensToBuy;\n    }\n\n    function userDetails(address user) view public returns (uint) {\n        return (userInfo[user].ownedTokens);\n    }\n\n    function tokensSold() view public returns (uint) {\n        return totalTokens - balanceTokens;\n    }\n\n    function transferTo(address account) public {\n        account.transfer(address(this).balance);\n    }\n\n    function registerUser(string userName, string password, address userAddress) public {\n        if (userInfo[userAddress].registered) revert();\n        userInfo[userAddress].registered = true;\n        userInfo[userAddress].userName = userName;\n        userInfo[userAddress].password = password;\n        userInfo[userAddress].userAddress = userAddress;\n    }\n\n    //return userName, ownedTokens, questionsLength, answersLength\n    function loginUser(address userAddress, string password) view public returns (string, uint, uint, uint) {\n        if (keccak256(userInfo[userAddress].password) != keccak256(password)) revert();\n        User memory user = userInfo[userAddress];\n        return (user.userName, user.ownedTokens, user.questionsIdList.length, user.answersIdList.length);\n    }\n\n    function getUserInfo(address userAddress) view public returns (string, uint, uint, uint) {\n        User memory user = userInfo[userAddress];\n        return (user.userName, user.ownedTokens, user.questionsIdList.length, user.answersIdList.length);\n    }\n\n    \n\n\n\n/*\n    function convertAnswerToString(bytes32 answerId, string answerContent, address answerer, uint rewards, bool bestAnswer, uint createDate) public returns (string) {\n        string memory isBestAnswer;\n        if (bestAnswer) {\n            isBestAnswer = \"true\";\n        } else {\n            isBestAnswer = \"false\";\n        }\n\n        return strConcat(answerContent, answerer, rewards, isBestAnswer, createDate, \"==>\");\n    }\n\n    function strConcat(string _b, address _c, uint _d, string _e, uint _f, string _spliter) internal returns (string){\n        // string memory str0 = strConcatSub0(bytes32ToString(_a));\n        string memory str1 = strConcatSub1(_b, _c, _spliter);\n        string memory str2 = strConcatSub2(_d, _e, _f, _spliter);\n        // bytes memory _ba = bytes(str0);\n        bytes memory _bb = bytes(str1);\n        bytes memory _bc = bytes(str2);\n        string memory abcde = new string(_bb.length + _bc.length);\n        bytes memory babcde = bytes(abcde);\n        uint k = 0;\n        // for (uint i = 0; i < _ba.length; i++) babcde[k++] = _ba[i];\n        for (uint i = 0; i < _bb.length; i++) babcde[k++] = _bb[i];\n        for (i = 0; i < _bc.length; i++) babcde[k++] = _bc[i];\n        return string(babcde);\n    }\n\n    function strConcatSub0(string[] id) internal returns (string) {\n        // bytes memory _ba = bytes(id);\n        // string memory newStr = new string(_ba.length);\n        // bytes memory res = bytes(newStr);\n        // uint k = 0;\n        // for (uint i = 0; i < _ba.length; i++) res[k++] = _ba[i];\n        // return string(res);\n    }\n\n    function strConcatSub1(string answerContent, address answerer, string spliter) internal returns (string) {\n        bytes memory _bb = bytes(answerContent);\n        bytes memory _bc = addressToBytes(answerer);\n        bytes memory _spliter = bytes(spliter);\n        string memory newStr = new string(_spliter.length + _bb.length + _spliter.length +_bc.length + _spliter.length);\n        bytes memory res = bytes(newStr);\n        uint k = 0;\n        for (uint i = 0; i < _spliter.length; i++) res[k++] = _spliter[i];\n        for (i = 0; i < _bb.length; i++) res[k++] = _bb[i];\n        for (i = 0; i < _spliter.length; i++) res[k++] = _spliter[i];\n        for (i = 0; i < _bc.length; i++) res[k++] = _bc[i];\n        for (i = 0; i < _spliter.length; i++) res[k++] = _spliter[i];\n        return string(res);\n    }\n\n    function strConcatSub2(uint rewards, string isBestAnswer, uint createDate, string spliter) internal returns (string) {\n        bytes memory _ba = uintToBytes(rewards);\n        bytes memory _bb = bytes(isBestAnswer);\n        bytes memory _bc = uintToBytes(createDate);\n        bytes memory _spliter = bytes(spliter);\n        string memory newStr = new string(_ba.length + _spliter.length + _bb.length + _spliter.length +_bc.length);\n        bytes memory res = bytes(newStr);\n        uint k = 0;\n        for (uint i = 0; i < _ba.length; i++) res[k++] = _ba[i];\n        for (i = 0; i < _spliter.length; i++) res[k++] = _spliter[i];\n        for (i = 0; i < _bb.length; i++) res[k++] = _bb[i];\n        for (i = 0; i < _spliter.length; i++) res[k++] = _spliter[i];\n        for (i = 0; i < _bc.length; i++) res[k++] = _bc[i];\n        return string(res);\n    }\n\n    function bytes32ToBytes(bytes32 data) view public returns (bytes) {\n        uint i = 0;\n        while (i < 32 && uint(data[i]) != 0) {\n            ++i;\n        }\n        bytes memory result = new bytes(i);\n        i = 0;\n        while (i < 32 && data[i] != 0) {\n            result[i] = data[i];\n            ++i;\n        }\n        return result;\n    }\n\n    function addressToBytes(address x) view public returns (bytes b) {\n        b = new bytes(20);\n        for (uint i = 0; i < 20; i++)\n            b[i] = byte(uint8(uint(x) / (2**(8*(19 - i)))));\n    }\n\n    function uintToBytes(uint256 x) view public returns (bytes b) {\n        b = new bytes(32);\n        for (uint i = 0; i < 32; i++) {\n            b[i] = byte(uint8(x / (2**(8*(31 - i))))); \n        }\n    }\n\n    function bytes32ToString(bytes32 x) view public returns (string) {\n        bytes memory bytesString = new bytes(32);\n        uint charCount = 0;\n        for (uint j = 0; j < 32; j++) {\n            byte char = byte(bytes32(uint(x) * 2 ** (8 * j)));\n            if (char != 0) {\n                bytesString[charCount] = char;\n                charCount++;\n            }\n        }\n        bytes memory bytesStringTrimmed = new bytes(charCount);\n        for (j = 0; j < charCount; j++) {\n            bytesStringTrimmed[j] = bytesString[j];\n        }\n        return string(bytesStringTrimmed);\n    }\n*/\n}",
  "sourcePath": "/Users/James/Project/qaforum/contracts/Forum.sol",
  "compiler": {
    "name": "solc",
    "version": "0.4.21+commit.dfe3193c.Emscripten.clang"
  },
  "schemaVersion": "2.0.0",
  "updatedAt": "2018-04-23T08:12:54.032Z"
}